:020000040800F2
:10000000600600206D0100087501000877010008F6
:10001000790100087B0100087D0100080000000054
:100020000000000000000000000000007F01000848
:10003000810100080000000083010008850100081C
:100040008701000887010008870100088701000870
:100050008701000887010008870100088701000860
:100060008701000887010008870100088701000850
:100070008701000887010008870100088701000840
:100080008701000887010008870100088701000830
:100090008701000887010008870100088701000820
:1000A0008701000887010008870100088701000810
:1000B0008701000887010008870100088701000800
:1000C00087010008870100088701000887010008F0
:1000D00087010008870100088701000887010008E0
:1000E00087010008870100088701000800F002F876
:1000F00000F02CF80AA090E8000C82448344AAF196
:100100000107DA4501D100F021F8AFF2090EBAE893
:100110000F0013F0010F18BFFB1A43F0010318473B
:1001200020040000300400000023002400250026E5
:10013000103A28BF78C1FBD8520728BF30C148BF4A
:100140000B6070471FB51FBD10B510BD00F031F832
:100150001146FFF7F7FF00F0B1F900F04FF803B4D4
:10016000FFF7F2FF03BC00F057F800000948804792
:1001700009480047FEE7FEE7FEE7FEE7FEE7FEE789
:10018000FEE7FEE7FEE7FEE704480549054A064BA1
:10019000704700007D030008ED00000860000020AB
:1001A0006006002060020020600200207047704757
:1001B0007047754600F02CF8AE4605006946534678
:1001C00020F00700854618B020B5FFF7DDFFBDE839
:1001D00020404FF000064FF000074FF000084FF0AE
:1001E000000BAC46ACE8C009ACE8C009ACE8C009FB
:1001F000ACE8C00921F007018D46704710B50446F0
:10020000AFF300802046BDE81040FFF7A8BF000014
:10021000004870470000002001491820ABBEFEE7EF
:10022000260002007047000070B515460E460446D1
:1002300000F070F950B34FF6E070C0F203000021F7
:10024000072E00EB860288BF0121082E38BFB200BE
:100250001C3010400F2254F82130824093436A1E14
:10026000072A44F8213088BF70BD8900DFE802F01A
:100270000406080E0E0E0E0F012209E0022207E00E
:100280000322635802FA00F01843605070BD082240
:10029000635802FA00F01843605070BD012303FA5E
:1002A00001F1002AC2680CBF22EA01011143C160BA
:1002B000C160704780B500F001F880BD82B041F2A6
:1002C00004000021C4F202000191009150F8041CC6
:1002D00041F4803140F8041C50F8041C01F4003152
:1002E0000091019901310191009919B90199B1F574
:1002F000A06FF1D150F8041C890354BF00210121E3
:1003000000910099012936D142F20001C4F20201A4
:100310000A6842F010020A600A6822F007020A60C6
:100320000A6842F002020A60016801600168016027
:10033000016841F480610160016821F47C11016071
:10034000016841F4E811016050F8041C41F080712B
:1003500040F8041C50F8041C8901FBD5016821F009
:1003600003010160016841F002010160016801F0D0
:100370000C010829FAD102B07047000080B541F2A3
:100380000000C4F202000168002241F00101016096
:100390004168CFF6FF021140416001684FF6FF72DD
:1003A000CFF6F66211400160016821F480210160FE
:1003B000416821F4FE0141604FF41F018160FFF7A5
:1003C00079FF4EF60850CEF200004FF00061016058
:1003D00080BD0000B0B50D46044600F09BF8A5B105
:1003E00098B9A4F18040A0F584304FEAB0200328EA
:1003F00050D8DFE800F002242C3441F21800C4F297
:100400000200016841F0040130E0002D42D10028D3
:1004100040D0A4F18040A0F584304FEAB0200328FA
:1004200088BFB0BDDFE800F00237252E41F218008A
:10043000C4F20200016821F004010160B0BD41F284
:100440001800C4F20200016841F008010EE041F218
:100450001800C4F20200016841F0100106E041F208
:100460001800C4F20200016841F02001016001603F
:10047000B0BD41F21800C4F20200016821F0100181
:100480000160B0BD41F21800C4F20200016821F021
:1004900020010160B0BD41F21800C4F20200016801
:1004A00021F008010160B0BD4FF47A714843002883
:1004B00008BF7047013800BFFCD1704741F200040B
:1004C000C4F2010404F5806528460121FFF782FF8C
:1004D00020460121FFF77EFF20460D210222FFF773
:1004E000A3FE284609210222FFF79EFE20460D2189
:1004F0000122FFF7D3FE41F28830FFF7D5FF2046F7
:100500000D210022FFF7CAFE41F28830FFF7CCFF31
:10051000ECE70000A0F18040A0F584304FEAB02065
:10052000032884BF0020704741F21801C4F2020181
:100530000968023021FA00F000F001007047000065
:100540005005000800000020600600002801000897
:04000005080000ED02
:00000001FF
